{
  "contractName": "BiffelContract",
  "abi": [
    {
      "inputs": [],
      "payable": false,
      "stateMutability": "nonpayable",
      "type": "constructor"
    },
    {
      "anonymous": false,
      "inputs": [
        {
          "indexed": false,
          "name": "biffelTitle",
          "type": "string"
        },
        {
          "indexed": false,
          "name": "biffelID",
          "type": "uint256"
        },
        {
          "indexed": false,
          "name": "seller",
          "type": "address"
        },
        {
          "indexed": false,
          "name": "slotCount",
          "type": "uint32"
        },
        {
          "indexed": false,
          "name": "slotPrice",
          "type": "uint256"
        },
        {
          "indexed": false,
          "name": "bounty",
          "type": "uint256"
        }
      ],
      "name": "biffelCreated",
      "type": "event"
    },
    {
      "anonymous": false,
      "inputs": [
        {
          "indexed": false,
          "name": "biffelID",
          "type": "uint256"
        },
        {
          "indexed": false,
          "name": "seller",
          "type": "address"
        },
        {
          "indexed": false,
          "name": "buyers",
          "type": "address[]"
        },
        {
          "indexed": false,
          "name": "slotPrice",
          "type": "uint256"
        },
        {
          "indexed": false,
          "name": "slotCount",
          "type": "uint32"
        },
        {
          "indexed": false,
          "name": "bounty",
          "type": "uint256"
        }
      ],
      "name": "slotBought",
      "type": "event"
    },
    {
      "anonymous": false,
      "inputs": [
        {
          "indexed": false,
          "name": "biffelID",
          "type": "uint256"
        },
        {
          "indexed": false,
          "name": "buyers",
          "type": "address[]"
        }
      ],
      "name": "biffelFull",
      "type": "event"
    },
    {
      "anonymous": false,
      "inputs": [
        {
          "indexed": false,
          "name": "biffelID",
          "type": "uint256"
        },
        {
          "indexed": false,
          "name": "winner",
          "type": "address"
        }
      ],
      "name": "biffelDecided",
      "type": "event"
    },
    {
      "constant": false,
      "inputs": [
        {
          "name": "title",
          "type": "string"
        },
        {
          "name": "ipfshash",
          "type": "string"
        },
        {
          "name": "_slotCount",
          "type": "uint32"
        },
        {
          "name": "_slotPrice",
          "type": "uint256"
        },
        {
          "name": "_bounty",
          "type": "uint256"
        }
      ],
      "name": "createBiffel",
      "outputs": [
        {
          "name": "",
          "type": "uint256"
        }
      ],
      "payable": false,
      "stateMutability": "nonpayable",
      "type": "function"
    },
    {
      "constant": false,
      "inputs": [
        {
          "name": "_biffelID",
          "type": "uint256"
        }
      ],
      "name": "buySlot",
      "outputs": [
        {
          "name": "success",
          "type": "bool"
        }
      ],
      "payable": true,
      "stateMutability": "payable",
      "type": "function"
    },
    {
      "constant": false,
      "inputs": [
        {
          "name": "_biffelID",
          "type": "uint256"
        }
      ],
      "name": "startBiffel",
      "outputs": [
        {
          "name": "winner",
          "type": "address"
        }
      ],
      "payable": true,
      "stateMutability": "payable",
      "type": "function"
    },
    {
      "constant": false,
      "inputs": [
        {
          "name": "_biffelID",
          "type": "uint256"
        }
      ],
      "name": "confirmShipment",
      "outputs": [
        {
          "name": "success",
          "type": "bool"
        }
      ],
      "payable": false,
      "stateMutability": "nonpayable",
      "type": "function"
    },
    {
      "constant": false,
      "inputs": [
        {
          "name": "_biffelID",
          "type": "uint256"
        }
      ],
      "name": "withdrawSlot",
      "outputs": [
        {
          "name": "success",
          "type": "bool"
        }
      ],
      "payable": false,
      "stateMutability": "nonpayable",
      "type": "function"
    },
    {
      "constant": true,
      "inputs": [],
      "name": "getBiffelCount",
      "outputs": [
        {
          "name": "",
          "type": "uint256"
        }
      ],
      "payable": false,
      "stateMutability": "view",
      "type": "function"
    },
    {
      "constant": true,
      "inputs": [
        {
          "name": "_biffelID",
          "type": "uint256"
        }
      ],
      "name": "getBiffelTitle",
      "outputs": [
        {
          "name": "title",
          "type": "string"
        }
      ],
      "payable": false,
      "stateMutability": "view",
      "type": "function"
    },
    {
      "constant": true,
      "inputs": [
        {
          "name": "_biffelID",
          "type": "uint256"
        }
      ],
      "name": "getBiffelIPFSHash",
      "outputs": [
        {
          "name": "IPFSHash",
          "type": "string"
        }
      ],
      "payable": false,
      "stateMutability": "view",
      "type": "function"
    },
    {
      "constant": true,
      "inputs": [
        {
          "name": "_biffelID",
          "type": "uint256"
        }
      ],
      "name": "getBiffelSeller",
      "outputs": [
        {
          "name": "seller",
          "type": "address"
        }
      ],
      "payable": false,
      "stateMutability": "view",
      "type": "function"
    },
    {
      "constant": true,
      "inputs": [
        {
          "name": "_biffelID",
          "type": "uint256"
        }
      ],
      "name": "getBiffelBuyers",
      "outputs": [
        {
          "name": "buyers",
          "type": "address[]"
        }
      ],
      "payable": false,
      "stateMutability": "view",
      "type": "function"
    },
    {
      "constant": true,
      "inputs": [
        {
          "name": "_biffelID",
          "type": "uint256"
        }
      ],
      "name": "getBiffelBuyerLength",
      "outputs": [
        {
          "name": "buyerLength",
          "type": "uint256"
        }
      ],
      "payable": false,
      "stateMutability": "view",
      "type": "function"
    },
    {
      "constant": true,
      "inputs": [
        {
          "name": "_biffelID",
          "type": "uint256"
        }
      ],
      "name": "getBiffelSlotCount",
      "outputs": [
        {
          "name": "slotCount",
          "type": "uint32"
        }
      ],
      "payable": false,
      "stateMutability": "view",
      "type": "function"
    },
    {
      "constant": true,
      "inputs": [
        {
          "name": "_biffelID",
          "type": "uint256"
        }
      ],
      "name": "getBiffelSlotPrice",
      "outputs": [
        {
          "name": "slotPrice",
          "type": "uint256"
        }
      ],
      "payable": false,
      "stateMutability": "view",
      "type": "function"
    },
    {
      "constant": true,
      "inputs": [
        {
          "name": "_biffelID",
          "type": "uint256"
        }
      ],
      "name": "getBiffelBalance",
      "outputs": [
        {
          "name": "balance",
          "type": "uint256"
        }
      ],
      "payable": false,
      "stateMutability": "view",
      "type": "function"
    },
    {
      "constant": true,
      "inputs": [
        {
          "name": "_biffelID",
          "type": "uint256"
        }
      ],
      "name": "getBiffelBounty",
      "outputs": [
        {
          "name": "bounty",
          "type": "uint256"
        }
      ],
      "payable": false,
      "stateMutability": "view",
      "type": "function"
    },
    {
      "constant": true,
      "inputs": [
        {
          "name": "_biffelID",
          "type": "uint256"
        }
      ],
      "name": "getBiffelStartBlock",
      "outputs": [
        {
          "name": "startBlock",
          "type": "uint256"
        }
      ],
      "payable": false,
      "stateMutability": "view",
      "type": "function"
    },
    {
      "constant": true,
      "inputs": [
        {
          "name": "_biffelID",
          "type": "uint256"
        }
      ],
      "name": "getBiffelBountyPaidTo",
      "outputs": [
        {
          "name": "bountyPaidTo",
          "type": "address"
        }
      ],
      "payable": false,
      "stateMutability": "view",
      "type": "function"
    },
    {
      "constant": true,
      "inputs": [
        {
          "name": "_biffelID",
          "type": "uint256"
        }
      ],
      "name": "getBiffelIsActive",
      "outputs": [
        {
          "name": "isActive",
          "type": "bool"
        }
      ],
      "payable": false,
      "stateMutability": "view",
      "type": "function"
    },
    {
      "constant": true,
      "inputs": [
        {
          "name": "_biffelID",
          "type": "uint256"
        }
      ],
      "name": "getBiffelWinner",
      "outputs": [
        {
          "name": "winner",
          "type": "address"
        }
      ],
      "payable": false,
      "stateMutability": "view",
      "type": "function"
    },
    {
      "constant": true,
      "inputs": [
        {
          "name": "_biffelID",
          "type": "uint256"
        }
      ],
      "name": "getBiffelTotalBounty",
      "outputs": [
        {
          "name": "totalBounty",
          "type": "uint256"
        }
      ],
      "payable": false,
      "stateMutability": "view",
      "type": "function"
    },
    {
      "constant": false,
      "inputs": [
        {
          "name": "person",
          "type": "address"
        },
        {
          "name": "upvote",
          "type": "bool"
        }
      ],
      "name": "rate",
      "outputs": [],
      "payable": false,
      "stateMutability": "nonpayable",
      "type": "function"
    },
    {
      "constant": true,
      "inputs": [
        {
          "name": "person",
          "type": "address"
        }
      ],
      "name": "getRating",
      "outputs": [
        {
          "name": "upvotes",
          "type": "uint256"
        },
        {
          "name": "downvotes",
          "type": "uint256"
        }
      ],
      "payable": false,
      "stateMutability": "view",
      "type": "function"
    }
  ],
  "bytecode": "0x608060405234801561001057600080fd5b50336000806101000a81548173ffffffffffffffffffffffffffffffffffffffff021916908373ffffffffffffffffffffffffffffffffffffffff160217905550600060038190555061213d806100686000396000f300608060405260043610610128576000357c0100000000000000000000000000000000000000000000000000000000900463ffffffff16806306ffc25f1461012d578063082db5ee1461016e57806310cbbec6146101b35780631210279714610213578063262e8ede14610262578063484aeb93146102cf578063548b6308146103b6578063605c7095146104385780636500186b146104a557806366b83793146104e6578063733849c21461058c57806380fc9c0e146105cd57806384efc1331461062b5780638e36da5e1461066c5780638f273cb9146106ad578063ab2874cb146106ee578063b6b2f39314610726578063bf36af3014610793578063c0b6862a14610839578063c30da3a31461087e578063c6dc44e9146108a9578063e0cb8e5f146108f6575b600080fd5b34801561013957600080fd5b506101586004803603810190808035906020019092919050505061093b565b6040518082815260200191505060405180910390f35b34801561017a57600080fd5b506101996004803603810190808035906020019092919050505061095b565b604051808215151515815260200191505060405180910390f35b6101d160048036038101908080359060200190929190505050610988565b604051808273ffffffffffffffffffffffffffffffffffffffff1673ffffffffffffffffffffffffffffffffffffffff16815260200191505060405180910390f35b34801561021f57600080fd5b50610260600480360381019080803573ffffffffffffffffffffffffffffffffffffffff169060200190929190803515159060200190929190505050610d17565b005b34801561026e57600080fd5b5061028d60048036038101908080359060200190929190505050610dc9565b604051808273ffffffffffffffffffffffffffffffffffffffff1673ffffffffffffffffffffffffffffffffffffffff16815260200191505060405180910390f35b3480156102db57600080fd5b506103a0600480360381019080803590602001908201803590602001908080601f0160208091040260200160405190810160405280939291908181526020018383808284378201915050505050509192919290803590602001908201803590602001908080601f0160208091040260200160405190810160405280939291908181526020018383808284378201915050505050509192919290803563ffffffff1690602001909291908035906020019092919080359060200190929190505050610e09565b6040518082815260200191505060405180910390f35b3480156103c257600080fd5b506103e1600480360381019080803590602001909291905050506111cf565b6040518080602001828103825283818151815260200191508051906020019060200280838360005b83811015610424578082015181840152602081019050610409565b505050509050019250505060405180910390f35b34801561044457600080fd5b5061046360048036038101908080359060200190929190505050611273565b604051808273ffffffffffffffffffffffffffffffffffffffff1673ffffffffffffffffffffffffffffffffffffffff16815260200191505060405180910390f35b3480156104b157600080fd5b506104d0600480360381019080803590602001909291905050506112b3565b6040518082815260200191505060405180910390f35b3480156104f257600080fd5b50610511600480360381019080803590602001909291905050506112d3565b6040518080602001828103825283818151815260200191508051906020019080838360005b83811015610551578082015181840152602081019050610536565b50505050905090810190601f16801561057e5780820380516001836020036101000a031916815260200191505b509250505060405180910390f35b34801561059857600080fd5b506105b76004803603810190808035906020019092919050505061138b565b6040518082815260200191505060405180910390f35b3480156105d957600080fd5b5061060e600480360381019080803573ffffffffffffffffffffffffffffffffffffffff1690602001909291905050506113ab565b604051808381526020018281526020019250505060405180910390f35b34801561063757600080fd5b506106566004803603810190808035906020019092919050505061143d565b6040518082815260200191505060405180910390f35b34801561067857600080fd5b506106976004803603810190808035906020019092919050505061145d565b6040518082815260200191505060405180910390f35b3480156106b957600080fd5b506106d8600480360381019080803590602001909291905050506114ab565b6040518082815260200191505060405180910390f35b61070c600480360381019080803590602001909291905050506114ce565b604051808215151515815260200191505060405180910390f35b34801561073257600080fd5b5061075160048036038101908080359060200190929190505050611985565b604051808273ffffffffffffffffffffffffffffffffffffffff1673ffffffffffffffffffffffffffffffffffffffff16815260200191505060405180910390f35b34801561079f57600080fd5b506107be600480360381019080803590602001909291905050506119c5565b6040518080602001828103825283818151815260200191508051906020019080838360005b838110156107fe5780820151818401526020810190506107e3565b50505050905090810190601f16801561082b5780820380516001836020036101000a031916815260200191505b509250505060405180910390f35b34801561084557600080fd5b5061086460048036038101908080359060200190929190505050611a7d565b604051808215151515815260200191505060405180910390f35b34801561088a57600080fd5b50610893611d53565b6040518082815260200191505060405180910390f35b3480156108b557600080fd5b506108d460048036038101908080359060200190929190505050611d5d565b604051808263ffffffff1663ffffffff16815260200191505060405180910390f35b34801561090257600080fd5b5061092160048036038101908080359060200190929190505050611d8d565b604051808215151515815260200191505060405180910390f35b600060016000838152602001908152602001600020600701549050919050565b600060016000838152602001908152602001600020600b0160149054906101000a900460ff169050919050565b6000806000806000804394506001806000898152602001908152602001600020600901540185101515156109bb57600080fd5b6001151560016000898152602001908152602001600020600b0160149054906101000a900460ff1615151415156109f157600080fd5b844060405180826000191660001916815260200191505060405180910390209350836001900492506001600088815260200190815260200160002060050160009054906101000a900463ffffffff1663ffffffff1683811515610a5057fe5b0691506001600088815260200190815260200160002060040182815481101515610a7657fe5b9060005260206000200160009054906101000a900473ffffffffffffffffffffffffffffffffffffffff169550600060016000898152602001908152602001600020600b0160146101000a81548160ff021916908315150217905550600073ffffffffffffffffffffffffffffffffffffffff1660016000898152602001908152602001600020600b0160009054906101000a900473ffffffffffffffffffffffffffffffffffffffff1673ffffffffffffffffffffffffffffffffffffffff16141515610b4357600080fd5b6001600088815260200190815260200160002060050160009054906101000a900463ffffffff1663ffffffff1660016000898152602001908152602001600020600801540290503373ffffffffffffffffffffffffffffffffffffffff166108fc829081150290604051600060405180830381858888f19350505050158015610bd0573d6000803e3d6000fd5b508060016000898152602001908152602001600020600701600082825403925050819055503360016000898152602001908152602001600020600b0160006101000a81548173ffffffffffffffffffffffffffffffffffffffff021916908373ffffffffffffffffffffffffffffffffffffffff1602179055507f0f4817d29d6f74e68387d7318be018d61a0c984f9c8c5effdb4bdb11896d6fe58787604051808381526020018273ffffffffffffffffffffffffffffffffffffffff1673ffffffffffffffffffffffffffffffffffffffff1681526020019250505060405180910390a18560016000898152602001908152602001600020600a0160006101000a81548173ffffffffffffffffffffffffffffffffffffffff021916908373ffffffffffffffffffffffffffffffffffffffff1602179055508595505050505050919050565b8015610d73576001600260008473ffffffffffffffffffffffffffffffffffffffff1673ffffffffffffffffffffffffffffffffffffffff16815260200190815260200160002060000160008282540192505081905550610dc5565b6001600260008473ffffffffffffffffffffffffffffffffffffffff1673ffffffffffffffffffffffffffffffffffffffff168152602001908152602001600020600101600082825401925050819055505b5050565b600060016000838152602001908152602001600020600a0160009054906101000a900473ffffffffffffffffffffffffffffffffffffffff169050919050565b600080610e14611eec565b600354915060016003600082825401925050819055506101a0604051908101604052808981526020018881526020018381526020013373ffffffffffffffffffffffffffffffffffffffff1681526020016000604051908082528060200260200182016040528015610e955781602001602082028038833980820191505090505b5081526020018763ffffffff1681526020018681526020016000815260200185815260200160008152602001600073ffffffffffffffffffffffffffffffffffffffff168152602001600073ffffffffffffffffffffffffffffffffffffffff16815260200160011515815250905080600160008481526020019081526020016000206000820151816000019080519060200190610f34929190611f9f565b506020820151816001019080519060200190610f51929190611f9f565b506040820151816002015560608201518160030160006101000a81548173ffffffffffffffffffffffffffffffffffffffff021916908373ffffffffffffffffffffffffffffffffffffffff1602179055506080820151816004019080519060200190610fbf92919061201f565b5060a08201518160050160006101000a81548163ffffffff021916908363ffffffff16021790555060c0820151816006015560e082015181600701556101008201518160080155610120820151816009015561014082015181600a0160006101000a81548173ffffffffffffffffffffffffffffffffffffffff021916908373ffffffffffffffffffffffffffffffffffffffff16021790555061016082015181600b0160006101000a81548173ffffffffffffffffffffffffffffffffffffffff021916908373ffffffffffffffffffffffffffffffffffffffff16021790555061018082015181600b0160146101000a81548160ff0219169083151502179055509050507fffbd192a23fc353a2fa329c7ae7b06611b3219c351b1732ba4e9c20e0699affe88833389898960405180806020018781526020018673ffffffffffffffffffffffffffffffffffffffff1673ffffffffffffffffffffffffffffffffffffffff1681526020018563ffffffff1663ffffffff168152602001848152602001838152602001828103825288818151815260200191508051906020019080838360005b83811015611182578082015181840152602081019050611167565b50505050905090810190601f1680156111af5780820380516001836020036101000a031916815260200191505b5097505050505050505060405180910390a1819250505095945050505050565b60606001600083815260200190815260200160002060040180548060200260200160405190810160405280929190818152602001828054801561126757602002820191906000526020600020905b8160009054906101000a900473ffffffffffffffffffffffffffffffffffffffff1673ffffffffffffffffffffffffffffffffffffffff168152602001906001019080831161121d575b50505050509050919050565b60006001600083815260200190815260200160002060030160009054906101000a900473ffffffffffffffffffffffffffffffffffffffff169050919050565b600060016000838152602001908152602001600020600801549050919050565b6060600160008381526020019081526020016000206001018054600181600116156101000203166002900480601f01602080910402602001604051908101604052809291908181526020018280546001816001161561010002031660029004801561137f5780601f106113545761010080835404028352916020019161137f565b820191906000526020600020905b81548152906001019060200180831161136257829003601f168201915b50505050509050919050565b600060016000838152602001908152602001600020600601549050919050565b600080600260008473ffffffffffffffffffffffffffffffffffffffff1673ffffffffffffffffffffffffffffffffffffffff16815260200190815260200160002060000154600260008573ffffffffffffffffffffffffffffffffffffffff1673ffffffffffffffffffffffffffffffffffffffff1681526020019081526020016000206001015491509150915091565b600060016000838152602001908152602001600020600901549050919050565b600060016000838152602001908152602001600020600801546001600084815260200190815260200160002060050160009054906101000a900463ffffffff1663ffffffff16029050919050565b600060016000838152602001908152602001600020600401805490509050919050565b6000806001600084815260200190815260200160002060030160009054906101000a900473ffffffffffffffffffffffffffffffffffffffff1673ffffffffffffffffffffffffffffffffffffffff163373ffffffffffffffffffffffffffffffffffffffff161415151561154257600080fd5b60016000848152602001908152602001600020600b0160149054906101000a900460ff16151561157157600080fd5b6001600084815260200190815260200160002060050160009054906101000a900463ffffffff1663ffffffff1660016000858152602001908152602001600020600401805490501015156115c457600080fd5b6001600084815260200190815260200160002060080154600160008581526020019081526020016000206006015401341015151561160157600080fd5b600160008481526020019081526020016000206004013390806001815401808255809150509060018203906000526020600020016000909192909190916101000a81548173ffffffffffffffffffffffffffffffffffffffff021916908373ffffffffffffffffffffffffffffffffffffffff16021790555050600160008481526020019081526020016000206004018054905090503460016000858152602001908152602001600020600701600082825401925050819055507ffbb33dea451c86c48f2cc4e9b8b4850485927e27dc10f83bc6c4232c17cb734e836001600086815260200190815260200160002060030160009054906101000a900473ffffffffffffffffffffffffffffffffffffffff166001600087815260200190815260200160002060040160016000888152602001908152602001600020600601546001600089815260200190815260200160002060050160009054906101000a900463ffffffff16600160008a815260200190815260200160002060080154604051808781526020018673ffffffffffffffffffffffffffffffffffffffff1673ffffffffffffffffffffffffffffffffffffffff168152602001806020018581526020018463ffffffff1663ffffffff168152602001838152602001828103825286818154815260200191508054801561185057602002820191906000526020600020905b8160009054906101000a900473ffffffffffffffffffffffffffffffffffffffff1673ffffffffffffffffffffffffffffffffffffffff1681526020019060010190808311611806575b505097505050505050505060405180910390a16001600084815260200190815260200160002060050160009054906101000a900463ffffffff1663ffffffff1681141561197b574360016000858152602001908152602001600020600901819055507f5565462e8db5d093decab2c1ca2e377dc1a64bee30552d594b159b84e1f39d1083600160008681526020019081526020016000206004016040518083815260200180602001828103825283818154815260200191508054801561196b57602002820191906000526020600020905b8160009054906101000a900473ffffffffffffffffffffffffffffffffffffffff1673ffffffffffffffffffffffffffffffffffffffff1681526020019060010190808311611921575b5050935050505060405180910390a15b6001915050919050565b600060016000838152602001908152602001600020600b0160009054906101000a900473ffffffffffffffffffffffffffffffffffffffff169050919050565b6060600160008381526020019081526020016000206000018054600181600116156101000203166002900480601f016020809104026020016040519081016040528092919081815260200182805460018160011615610100020316600290048015611a715780601f10611a4657610100808354040283529160200191611a71565b820191906000526020600020905b815481529060010190602001808311611a5457829003601f168201915b50505050509050919050565b600080600060016000858152602001908152602001600020600b0160149054906101000a900460ff161515611ab157600080fd5b60016000858152602001908152602001600020600401805490509150600090505b81811015611d47573373ffffffffffffffffffffffffffffffffffffffff166001600086815260200190815260200160002060040182815481101515611b1457fe5b9060005260206000200160009054906101000a900473ffffffffffffffffffffffffffffffffffffffff1673ffffffffffffffffffffffffffffffffffffffff161415611d3a576001600085815260200190815260200160002060040160018303815481101515611b8157fe5b9060005260206000200160009054906101000a900473ffffffffffffffffffffffffffffffffffffffff166001600086815260200190815260200160002060040182815481101515611bcf57fe5b9060005260206000200160006101000a81548173ffffffffffffffffffffffffffffffffffffffff021916908373ffffffffffffffffffffffffffffffffffffffff1602179055506001600085815260200190815260200160002060040160018303815481101515611c3d57fe5b9060005260206000200160006101000a81549073ffffffffffffffffffffffffffffffffffffffff02191690553373ffffffffffffffffffffffffffffffffffffffff166108fc60016000878152602001908152602001600020600801546001600088815260200190815260200160002060060154019081150290604051600060405180830381858888f19350505050158015611cde573d6000803e3d6000fd5b506001600085815260200190815260200160002060080154600160008681526020019081526020016000206006015401600160008681526020019081526020016000206007016000828254039250508190555060019250611d4c565b8080600101915050611ad2565b600092505b5050919050565b6000600354905090565b60006001600083815260200190815260200160002060050160009054906101000a900463ffffffff169050919050565b600080151560016000848152602001908152602001600020600b0160149054906101000a900460ff161515141515611dc457600080fd5b60016000838152602001908152602001600020600a0160009054906101000a900473ffffffffffffffffffffffffffffffffffffffff1673ffffffffffffffffffffffffffffffffffffffff163373ffffffffffffffffffffffffffffffffffffffff16141515611e3457600080fd5b6001600083815260200190815260200160002060030160009054906101000a900473ffffffffffffffffffffffffffffffffffffffff1673ffffffffffffffffffffffffffffffffffffffff166108fc60016000858152602001908152602001600020600701549081150290604051600060405180830381858888f19350505050158015611ec6573d6000803e3d6000fd5b506000600160008481526020019081526020016000206007018190555060019050919050565b6101a060405190810160405280606081526020016060815260200160008152602001600073ffffffffffffffffffffffffffffffffffffffff16815260200160608152602001600063ffffffff16815260200160008152602001600081526020016000815260200160008152602001600073ffffffffffffffffffffffffffffffffffffffff168152602001600073ffffffffffffffffffffffffffffffffffffffff1681526020016000151581525090565b828054600181600116156101000203166002900490600052602060002090601f016020900481019282601f10611fe057805160ff191683800117855561200e565b8280016001018555821561200e579182015b8281111561200d578251825591602001919060010190611ff2565b5b50905061201b91906120a9565b5090565b828054828255906000526020600020908101928215612098579160200282015b828111156120975782518260006101000a81548173ffffffffffffffffffffffffffffffffffffffff021916908373ffffffffffffffffffffffffffffffffffffffff1602179055509160200191906001019061203f565b5b5090506120a591906120ce565b5090565b6120cb91905b808211156120c75760008160009055506001016120af565b5090565b90565b61210e91905b8082111561210a57600081816101000a81549073ffffffffffffffffffffffffffffffffffffffff0219169055506001016120d4565b5090565b905600a165627a7a723058202a0cd91bde5a0330e8dce85f5014463fef157ac54253c582dd100cb63d9447070029",
  "source": "pragma solidity ^0.4.21;\n\ncontract BiffelContract {\n\n    address contractCreator;\n    \n    struct Biffel {\n        string biffelTitle;\n        string biffelIPFSHash;\n        uint biffelID;\n        address seller;\n        address[] buyers;\n        uint32 slotCount;\n        uint256 slotPrice;\n        uint256 balance;\n        uint256 bounty;\n        uint startBlock;\n        address winner;\n        \n        address bountyPaidTo;\n        \n        bool isActive;\n    }\n\n    struct Votes {\n        uint upvotes;\n        uint downvotes;\n    }\n\n    event biffelCreated(\n        string biffelTitle,\n        uint biffelID,\n        address seller,\n        uint32 slotCount,\n        uint256 slotPrice,\n        uint256 bounty\n    );\n    \n    event slotBought(\n        uint biffelID,\n        address seller,\n        address[] buyers,\n        uint256 slotPrice,\n        uint32 slotCount,\n        uint256 bounty\n    );\n    \n    event biffelFull(\n        uint biffelID,\n        address[] buyers\n    );\n    \n    event biffelDecided(\n        uint biffelID,\n        address winner\n    );\n\n    mapping (uint => Biffel) biffels;\n    mapping (address => Votes) ratings;\n    uint256 biffelCount;\n    \n    //assuming average finality is around 6 or 7 this number should be 10. height of 1 is better for testing\n    uint constant clearingHeight = 1;\n\n    constructor() public {\n        contractCreator = msg.sender;\n        biffelCount = 0;\n    }\n\n    function createBiffel(string title, string ipfshash, uint32 _slotCount, uint256 _slotPrice, uint256 _bounty) public returns (uint) {\n        uint _biffelID = biffelCount;\n\n        biffelCount += 1;\n        \n        Biffel memory biffel = Biffel(title, ipfshash, _biffelID,msg.sender,new address[](0),_slotCount,_slotPrice,0 wei,_bounty,0,address(0),address(0), true);\n        \n        biffels[_biffelID] = biffel;\n\n        emit biffelCreated(title, _biffelID,msg.sender,_slotCount,_slotPrice,_bounty);\n\n        return _biffelID;\n    }\n\n    function buySlot(uint _biffelID) public payable returns (bool success) {\n        \n        require(msg.sender != biffels[_biffelID].seller);\n        require(biffels[_biffelID].isActive);\n        require(biffels[_biffelID].buyers.length < biffels[_biffelID].slotCount);\n        require(msg.value >= biffels[_biffelID].slotPrice + biffels[_biffelID].bounty);\n\n        biffels[_biffelID].buyers.push(msg.sender);\n        uint buyerCount = biffels[_biffelID].buyers.length;\n\n        biffels[_biffelID].balance += msg.value;\n        \n        emit slotBought(_biffelID,biffels[_biffelID].seller,biffels[_biffelID].buyers,biffels[_biffelID].slotPrice,biffels[_biffelID].slotCount,biffels[_biffelID].bounty);\n\n        if (buyerCount == biffels[_biffelID].slotCount) {\n            biffels[_biffelID].startBlock = block.number;\n            emit biffelFull(_biffelID,biffels[_biffelID].buyers);\n        }\n\n        return true;\n    }\n\n    function startBiffel(uint _biffelID) public payable returns (address winner){\n        uint blockNumber = block.number;\n        \n        //check if we have reached average finality\n        require(blockNumber >= biffels[_biffelID].startBlock + clearingHeight);\n        \n        require(biffels[_biffelID].isActive == true);\n        \n        \n        bytes32 hash = keccak256(block.blockhash(blockNumber));\n        uint intHash = uint(hash);\n        uint randInt = intHash % biffels[_biffelID].slotCount;\n        winner = biffels[_biffelID].buyers[randInt];\n        biffels[_biffelID].isActive = false;\n        \n        require(biffels[_biffelID].bountyPaidTo == address(0));\n        uint256 totalBounty = biffels[_biffelID].bounty * biffels[_biffelID].slotCount;\n        msg.sender.transfer(totalBounty);\n        biffels[_biffelID].balance -= totalBounty;\n        biffels[_biffelID].bountyPaidTo = msg.sender;\n        \n        emit biffelDecided(_biffelID,winner);\n        \n        biffels[_biffelID].winner = winner;\n        \n        return winner;\n\n\n    }\n    \n    function confirmShipment(uint _biffelID) public returns (bool success) {\n        require(biffels[_biffelID].isActive == false);\n        require(msg.sender == biffels[_biffelID].winner);\n        biffels[_biffelID].seller.transfer(biffels[_biffelID].balance);\n        biffels[_biffelID].balance = 0;\n        return true;\n    }\n    \n    function withdrawSlot(uint _biffelID) public returns (bool success) {\n        \n        require(biffels[_biffelID].isActive);\n        uint buyerLength = biffels[_biffelID].buyers.length;\n        for(uint i = 0; i < buyerLength;i++){\n           if(biffels[_biffelID].buyers[i] == msg.sender){\n               \n               biffels[_biffelID].buyers[i] = biffels[_biffelID].buyers[buyerLength - 1];\n               \n               delete biffels[_biffelID].buyers[buyerLength - 1];\n               \n               \n               msg.sender.transfer(biffels[_biffelID].slotPrice + biffels[_biffelID].bounty);\n               biffels[_biffelID].balance -= (biffels[_biffelID].slotPrice + biffels[_biffelID].bounty);\n               return true;\n           }\n        }\n        \n        return false;\n    }\n    \n    //return a count of the biffels\n    function getBiffelCount() public view returns (uint256){\n        return biffelCount;\n    }\n    \n    //public getters for Biffel struct variables\n    //requires biffelIDs\n    \n    function getBiffelTitle(uint256 _biffelID) public view returns (string title){\n        return biffels[_biffelID].biffelTitle;\n    }\n\n    function getBiffelIPFSHash(uint256 _biffelID) public view returns (string IPFSHash){\n        return biffels[_biffelID].biffelIPFSHash;\n    }\n    \n    function getBiffelSeller(uint256 _biffelID) public view returns (address seller){\n        return biffels[_biffelID].seller;\n    }\n    \n    function getBiffelBuyers(uint256 _biffelID) public view returns (address[] buyers){\n        return biffels[_biffelID].buyers;\n    }\n    \n    function getBiffelBuyerLength(uint256 _biffelID) public view returns (uint buyerLength){\n        return biffels[_biffelID].buyers.length;\n    }\n    \n    function getBiffelSlotCount(uint256 _biffelID) public view returns (uint32 slotCount){\n        return biffels[_biffelID].slotCount;\n    }\n    \n    function getBiffelSlotPrice(uint256 _biffelID) public view returns (uint256 slotPrice){\n        return biffels[_biffelID].slotPrice;\n    }\n    \n    function getBiffelBalance(uint256 _biffelID) public view returns (uint256 balance){\n        return biffels[_biffelID].balance;\n    }\n    \n    function getBiffelBounty(uint256 _biffelID) public view returns (uint256 bounty){\n        return biffels[_biffelID].bounty;\n    }\n    \n    function getBiffelStartBlock(uint256 _biffelID) public view returns (uint startBlock){\n        return biffels[_biffelID].startBlock;\n    }\n    \n    function getBiffelBountyPaidTo(uint256 _biffelID) public view returns (address bountyPaidTo){\n        return biffels[_biffelID].bountyPaidTo;\n    }\n    \n    function getBiffelIsActive(uint256 _biffelID) public view returns (bool isActive){\n        return biffels[_biffelID].isActive;\n    }\n    \n    function getBiffelWinner(uint256 _biffelID) public view returns (address winner){\n        return biffels[_biffelID].winner;\n    }\n    \n    function getBiffelTotalBounty(uint256 _biffelID) public view returns (uint256 totalBounty){\n        return biffels[_biffelID].slotCount * biffels[_biffelID].bounty;\n    }\n    \n    // ratings\n    function rate(address person, bool upvote) {\n        if (upvote) {\n            ratings[person].upvotes += 1;\n        } else {\n            ratings[person].downvotes += 1;\n        }\n    }\n\n    function getRating(address person) public view returns (uint upvotes, uint downvotes){\n        return (ratings[person].upvotes, ratings[person].downvotes);\n    }\n\n}",
  "sourcePath": "/Users/miguelayala/Desktop/Work/spr18/cs359b/cs359b-biffel-1/biffel/contracts/Biffel.sol",
  "compiler": {
    "name": "solc",
    "version": "0.4.23+commit.124ca40d.Emscripten.clang"
  },
  "schemaVersion": "2.0.0",
  "updatedAt": "2018-06-06T05:22:50.051Z"
}